:060000000A128A11F42F20
:100EAC000A300A128A1169270A128A11F801F80A03
:100EBC00F901F90A01300A128A11A4270A128A11BF
:100ECC000A128A110028FA008C2F831603130F08BC
:100EDC008F3940388F00A22F831603130F088F39D8
:100EEC0050388F00A22F831603130F088F396038E8
:100EFC008F00A22F7030831603138F04A22F83163A
:100F0C0003130F088F3960388F00A22F7A08F8006E
:100F1C00F9017908003A0319942F852F7808013AC2
:100F2C0003196B2F033A0319722F063A0319792F01
:100F3C000C3A0319802F852F0F140800FC00BF2FCB
:100F4C003F30831203139F05831203131F083F398D
:100F5C0040389F00831203131F083F3980389F00CD
:100F6C00C030831203139F04C030831203139F04F9
:100F7C00D52F7C08FA00FB017B08003A0319C72F18
:100F8C00BA2F7A08013A0319A62F033A0319AA2F8C
:100F9C00013A0319B02F073A0319B62FBA2F0230B2
:100FAC0078020318DA2FDB2FE32F780C8316031348
:100FBC00031C9F1203189F16E62F831603139F1210
:100FCC00023079020318EB2FEC2FF22F790C031C53
:100FDC001F1203181F16F32F1F120800F001F10146
:100FEC00F201F301F401F501F601F70183010A1294
:040FFC008A11562FD1
:04400E00D420FF3F7C
:00000001FF
